:020000020000FC
:040000000C942C0030
:04002C000C945300DD
:100054000C94540070E080E008E00EBF0FEF0DBF79
:100064000E94400000E600937C000EEA00937A00B0
:1000740003E000937B000FE100937E0000E0009317
:1000840080000CE00093810000E00093820002E015
:1000940000936F0000E30093890003ED0093880050
:1000A400789418950F930FB70F932F93781709F03F
:1000B4000AC02091790020930001739501E6009312
:1000C4007C000C949A008395781709F00AC020915B
:1000D40079003093010173E002E600937C000C94F4
:1000E4009A008395781709F00AC02091790040930B
:1000F400020176E003E200937C000C949A0083955D
:10010400781709F00AC020917900509303017AE02E
:1001140004E600937C000C949A002091790060938B
:10012400040100E600937C0070E080E00C949A00E7
:100134000F910FBF0F912F9118950091000114E1B9
:100144002AE0010F029F00922101109222010091E6
:10015400020114E0019F00922301109224010091F6
:10016400030112E301172CF0011B009323010C94EB
:10017400BE00101B10932301009104011EE1011B1A
:0401840000932401BF
:00000001FF
